:020000040800F2
:10000000281700202901000805130008990B000893
:10001000811000089905000865180008000000001C
:1000200000000000000000000000000005150008AE
:1000300035060008000000003F010008CB1500084D
:100040004301000843010008430100084301000880
:100050004301000843010008430100084301000870
:100060004301000843010008430100084301000860
:100070004301000843010008430100084301000850
:100080004301000843010008430100084301000840
:100090004301000843010008430100084301000830
:1000A0004301000843010008430100084301000820
:1000B0004301000843010008430100084301000810
:1000C0004301000843010008430100084301000800
:1000D00043010008430100084301000843010008F0
:1000E00043010008430100084301000843010008E0
:1000F00043010008430100084301000843010008D0
:1001000043010008430100084301000843010008BF
:1001100043010008DFF80CD000F02EF8004800473B
:10012000451E00082817002006488047064800475B
:10013000FEE7FEE7FEE7FEE7FEE7FEE7FEE7FEE797
:10014000FEE7FEE7E51600081501000830B50B468E
:10015000014600202022012409E021FA02F59D42F7
:1001600005D303FA02F5491B04FA02F52844151ECB
:10017000A2F10102F1DC30BD064C074D06E0E0685B
:1001800040F0010394E8070098471034AC42F6D3DE
:10019000FFF7C4FF00270008202700080348006875
:1001A00020F0100001490860704700005808024024
:1001B000014601290BD10F480068C8B90D484C38D9
:1001C000006840F004000B4A4C3A106010E002292D
:1001D0000ED108484C38006800F0040030B10548E2
:1001E000006808B1002070470120FCE70020FAE712
:1001F0000020F8E75408024030B50A4600210928DB
:1002000013DC01461E4B1B6801EB41050724AC4083
:10021000A3431B4C236023461B6801EB410402FAF5
:1002200004F42343164C236028E0112817DCA0F1C6
:100230000A01134B1B1F1B6801EB41050724AC404F
:10024000A3430F4C241F236023461B6801EB41048A
:1002500002FA04F423430A4C241F23600EE0084BE7
:100260004C331B6801EB41050724AC40A343044C0D
:100270004C34236023461B681343236030BD0000C9
:100280001008024070B505460C4601F057F83DB91C
:1002900001F060F8204601F045F8FFF77FFF04E029
:1002A000204601F061F800F079F870BD034800685D
:1002B00020F0020001490860704700000808024071
:1002C0000348006840F002000149086070470000E0
:1002D000080802400549096821F40061034A1160D9
:1002E0001146096801431160704700000808024088
:1002F000024909688143014A1160704700080240C1
:100300000346012B07D108480068084008B10120C6
:1003100070470020FCE7044858300068104008B1DE
:100320000120F5E70020F3E70008024000B503468E
:10033000187810B100F01EF801E000F011F85878BC
:1003400010B1FFF7BDFF01E0FFF7B0FF586800F004
:1003500067F89868FFF7BEFFD86800F029F800BD7D
:100360000348006820F4807001490860704700006D
:10037000040802400348006840F4807001490860A6
:1003800070470000040802400348006840F0010084
:1003900001490860704700000808024003480068EF
:1003A00040F0100001490860704700005808024002
:1003B0000549096821F47001034A11601146096872
:1003C00001431160704700002C0802400146B1F55E
:1003D000A00F05D10E48006808430D4A106014E0D4
:1003E0006FF4A000814205D1094800680840084A1E
:1003F00010600AE0B1F5800F07D105480068084099
:1004000008B1012070470020FCE70020FAE7000057
:10041000080802400148006880B270474C0802405A
:100420000549096821F46021034A116011460968F1
:1004300001431160704700000808024010B505290B
:1004400012DC234A126801EB81041F23A3409A4364
:100450001F4B1A601A46126801EB810300FA03F37E
:100460001A431B4B1A6032E00B2917DC184A121F83
:1004700012688B1F03EB83041F23A3409A43144B82
:100480001B1F1A601A4612688B1F03EB830300FAC6
:1004900003F31A430E4B1B1F1A6018E00C4A083A6C
:1004A0001268A1F10C0303EB83041F23A3409A43BA
:1004B000074B083B1A601A461268A1F10C0303EBC4
:1004C000830300FA03F31A43014B083B1A6010BD83
:1004D0003408024010B5044605212046FFF78CFE83
:1004E00000212046FFF7AAFF4FF4A000FFF76EFFA0
:1004F00000E000BF202202210120FFF701FF0028B9
:10050000F7D00220FFF7F4FE1020FFF7F1FEFFF70F
:1005100081FF10BD00B58BB04FF4885000F030FF64
:1005200007210020FFF7AEFE4FF46051002000F0DD
:10053000EBFE05A800F024FB4FF4C040059003201B
:10054000069005A9134800F0D2FA00208DF80400A7
:100550008DF805004FF46020029000200390049075
:1005600001A8FFF7E3FEFFF70FFF00E000BF202226
:1005700001210220FFF7C4FE0028F7D00120FFF779
:1005800017FE00E000BF0220FFF712FE0128F9D09D
:100590000BB000BD0038024000BFFEE700B587B0D9
:1005A00001A800F0EDFA0320059001200290382008
:1005B000019001A9024800F09AFA07B000BD0000BE
:1005C00000380240024949680143014A51607047BE
:1005D000002004E030B50146B1F1807F01D3012055
:1005E00030BD21F07F40401E4FF0E0225061501797
:1005F0000F22002804DB13071C0E0C4B1C5406E0D2
:1006000013071D0E0A4B00F00F04241F1D5500BFD9
:1006100000204FF0E0229061052010611046006933
:1006200020F0020010610020DAE7000000E400E0A2
:1006300018ED00E0704700002DE9FF4F89B0044637
:100640000D469346DDE91686189F8348006800280A
:100650007ED101F09DFDA0420FDD01F0E3FBA84239
:100660000BDD062000FB0640401E002805D40820B4
:1006700000FB0750401E002803D500200DB0BDE848
:10068000F08F4FF0000955E00BEB8B0048447349A5
:10069000085C02904FF0000A45E0029800F001006B
:1006A000D0B1012E0BD1012F09D105EB0A0211B2F5
:1006B00004EB090210B20C9A00F0D2F82CE00C986E
:1006C0000AFB075211B209FB0642009010B23B46EA
:1006D000324600F09DF91FE00C9880451CD0B8F11F
:1006E000030F19D0012E0BD1012F09D105EB0A02FE
:1006F00011B204EB090210B2424600F0B1F80BE06F
:100700000AFB075211B209FB064210B23B463246C1
:10071000CDF8008000F07CF90AF101004FFA80FA70
:10072000029840100290BAF1080FB6DB09F10100FF
:100730004FFA80F9B9F1050FA6DB0C98804518D067
:10074000012E0BD1012F09D143460822294600E092
:1007500014E0601D00B200F011F90AE0FB00052171
:1007600001FB064108B232462946CDF8008000F070
:100770004FF906EB46004006000E7FE7364800685A
:100780004078049034480068C078584504DC32480A
:1007900000680079584503DA2F48006890F805B0E2
:1007A0002D48006880682C490968C978ABEB0101C5
:1007B000294A1268927801FB0200039008943FE0F6
:1007C00007952EE00498082801DD082000E0049831
:1007D00005900398007806900398401C039019E058
:1007E000069800F0010028B10C9ADDE9071000F02E
:1007F00037F804E04246DDE9071000F031F80698CA
:10080000401006900798401C00B207900598401EC3
:10081000C0B2059005980028E2D104980838C0B20B
:1008200004900D4800684078411907988142C9DC5E
:100830000898401C00B2089007480068407804906F
:10084000054800680078011908988142B8DC024820
:100850000068007812E7000008000020F02100087E
:1008600070B505460C461646032E00D170BD2DB25C
:1008700024B201F08DFC401EA84208DB01F0D2FA40
:10088000401EA04203DB002D01DB002C00DAEDE767
:1008900038480078012804D0022809D0032815D14F
:1008A0000DE065406C406540C5F17F0005B20EE08B
:1008B000C5F17F0005B2C4F11F0004B207E0654036
:1008C0006C406540C4F11F0004B200E000BF00BFEF
:1008D00026B1012E1AD0022E47D12EE0E11704EBEB
:1008E0005171C91005EBC111234A515C04F0070393
:1008F00001229A401143CAB22046E11704EB51711C
:10090000C91005EBC1111C4B5A542FE0E11704EB41
:100910005171C91005EBC111174A515C04F007036E
:1009200001229A4091432046E21704EB5272D21002
:1009300005EBC212104B995418E0E11704EB51710A
:10094000C91005EBC1110C4A515C04F007030122E8
:100950009A405140CAB22046E11704EB5171C910C8
:1009600005EBC111044B5A5400E000BF00BF00BFAB
:100970007CE7000010000020240000202DE9F04159
:1009800004460D4616461F46032F01D1BDE8F081EF
:100990004FF000081D480078012804D002280ED02E
:1009A00003281FD115E04FF001086C4065406C40F2
:1009B000C4F17F0004B2701E201A04B213E0C4F127
:1009C0007F0004B2C5F11F0005B2701E281A05B2DF
:1009D00009E04FF001086C4065406C40C5F11F0014
:1009E00005B200E000BF00BFB8F1000F06D03B46E3
:1009F00032462946204601F00DF905E03B463246D5
:100A00002946204601F05AF900BFBFE71000002038
:100A10002DE9F0470446884616461F46DDF820902B
:100A2000254607E04B463A4641462846FFF7A6FFD3
:100A3000681C05B2A019A842F4DCBDE8F08730B507
:100A40000346002002F0080464B1586A5407E50E1A
:100A50000F24AC40A0435407E40E01FA04F42043F1
:100A600058620BE0186A5407E50E0F24AC40A0430F
:100A70005407E40E01FA04F42043186230BD30B587
:100A80000B460021C16A55000324AC40A143540029
:100A900003FA04F42143C16230BD024610690840E4
:100AA00008B1012070470020FCE770B50346002024
:100AB0000024186801F0030456000325B540A8433C
:100AC000550004FA05F528431860012905D01129BD
:100AD00003D0022901D0122908D158680125954078
:100AE000A843C1F3001595402843586070BDF0B588
:100AF00006460C46002500271FE00121A94020687A
:100B000000EA0107C7B12A4630466169FFF797FF3F
:100B10002A4630466168FFF7C8FF2A463046A1687A
:100B200000F014F82A463046E16800F01DF82A4625
:100B300030462169FFF7A3FF6D1C2068E8400028BC
:100B4000DBD1F0BD816270478161704730B50B46E3
:100B50000021C16855000324AC40A143540003FAAE
:100B600004F42143C16030BD10B50B4600218168FB
:100B700001249440A14303FA02F42143816010BD93
:100B80004FF6FF7101600021C16041600F2141619A
:100B9000002181600161704700BFFEE7FFB581B0B1
:100BA000064614461D460A9F2346012202A93046E6
:100BB000009500F0A8FC002005B0F0BD10B5FF22A4
:100BC00000BF00BF00BF2020164B186000BF00BF51
:100BD00000BF1020134B186000BF00BF00BF00BF54
:100BE00010480838006800F02001501EC2B242B917
:100BF00010200C4B1033186000BF00BF00BF012055
:100C000010BD0029ECD11020064B1033186000BF36
:100C1000142000E000BF031EA0F10100FAD100BFC4
:100C20000020EDE71834024010201349086000BF8F
:100C300000BF00BF20201049086000BF052000E071
:100C400000BF011EA0F10100FAD100BF20200A4917
:100C50001031086000BF00BF00BF102006491031EE
:100C6000086000BF142000E000BF011EA0F10100D9
:100C7000FAD100BF704700001834024020200E490E
:100C8000086000BF00BF00BF10200B49103908608A
:100C900000BF00BF00BF202007491039086000BF17
:100CA00000BF00BF00BF142000E000BF011EA0F184
:100CB0000100FAD100BF70472834024000211EE035
:100CC00000F080021AB120220E4B1A6003E02022AD
:100CD0000C4B10331A6000BF00BF00BF1022094B3D
:100CE0001A6000BF00BF00BF1022064B10331A600D
:100CF00000BF00BF00BF4206100E4A1CD1B2082937
:100D0000DEDB70471834024070B505460C4600F033
:100D10002BF8284600F022F8204600F005F800F0F5
:100D200015F800F007F870BD0149886070470000B1
:100D3000003000404CF6CC4001490860704700008C
:100D40000030004010B500F001F810BD4AF6AA20AE
:100D500001490860704700000030004001494860C8
:100D6000704700000030004045F2555001490860CE
:100D7000704700000030004010B52948007820B1CD
:100D8000012821D0022843D136E001212548FFF770
:100D900084FE70B924480088401C23490880084616
:100DA000008802280FDB01201D4908701F490870C8
:100DB00009E01D480088022805DB00201A49088048
:100DC00001201B49087029E001211648FFF765FE44
:100DD00060B915480088401C1349088008460088FF
:100DE000322808DB02200E49087004E000200E497A
:100DF00008800B49087011E001210A48FFF74DFEF9
:100E0000012804D10020084908800549087005E040
:100E10000020034908700449088000BF00BF10BDCE
:100E20001E000020003402401200002018000020A4
:100E30001900002000B587B001A8FFF7A1FE00202F
:100E40000290012003900720019001A90248FFF7BA
:100E50004EFE07B000BD00000034024010B57B48D4
:100E6000007820B1012821D0022843D136E00121A9
:100E70007748FFF712FE70B976480088401C754924
:100E80000880084600881E280FDB01206F49087083
:100E90007149087009E06F480088022805DB0020CE
:100EA0006C49088001206D49087029E001216848DB
:100EB000FFF7F3FD60B967480088401C654908806A
:100EC00008460088322808DB02206049087004E0E8
:100ED0000020604908805D49087011E001215C48EC
:100EE000FFF7DBFD012804D100205A49088057494B
:100EF000087005E00020554908705649088000BF79
:100F000000BF5748007820B1012821D0022843D1E2
:100F100036E002214E48FFF7C0FD70B95148008805
:100F2000401C50490880084600881E280FDB01201D
:100F30004B4908704C49087009E04A48008802286B
:100F400005DB00204749088001204849087029E056
:100F500002213F48FFF7A1FD60B942480088401CCC
:100F60004049088008460088322808DB02203C49B6
:100F7000087004E000203B4908803949087011E0FE
:100F800002213348FFF789FD012804D100203549AB
:100F900008803349087005E0002031490870314964
:100FA000088000BF00BF3248007820B1012821D05E
:100FB000022843D136E004212548FFF76EFD70B9C1
:100FC0002C480088401C2B490880084600881E28B1
:100FD0000FDB0120264908702749087009E02548E1
:100FE0000088022805DB00202249088001202349CF
:100FF000087029E004211648FFF74FFD60B91D482D
:101000000088401C1B49088008460088322808DBFD
:1010100002201749087004E000201649088014498E
:10102000087011E004210A48FFF737FD012804D1B8
:101030000020104908800E49087005E000200C4986
:1010400008700C49088000BF00BF10BD1E000020C2
:101050000034024012000020180000201900002077
:101060001F000020140000201A0000201B00002098
:1010700020000020160000201C0000201D00002081
:1010800000BFFEE700B587B0802000F079F901A825
:10109000FFF776FD3020019011200290002004908F
:1010A0000120039001A90448FFF721FD30210248E7
:1010B000FFF74AFD07B000BD0034024000B5084804
:1010C000007810B1032805D100E000BF002000F037
:1010D00095F800BDFF2000F091F800BFF9E700008F
:1010E0000E000020FEB504460D461646084800785E
:1010F00008490978084A1278CDE90021029007488A
:101100000378324629462046FFF796FAFEBD0000D6
:101110000D0000200C0000200F0000200E00002019
:101120002DE9F05F82468B461446D0465E46304835
:10113000006850B92F480078C006050E2E48007888
:1011400000EB40004006070E05E02948006845789E
:101150002748006807784FF0000941E001F018F8CF
:1011600008EB0701884211DC4FF00008701906B245
:1011700000F058FE7119884200DC34E02078202805
:1011800002D020780D2801D1641C29E020780D2898
:1011900001D1641C24E020780A2813D1641C4FF08C
:1011A0000008701906B200F03DFE7119884200DC9B
:1011B00019E02078202802D020780D2801D1641C65
:1011C0000EE00DE0227831464046FFF78BFF4844A1
:1011D0001FFA80F908EB07000FFA80F8641C00BFC3
:1011E00020780028BAD100BF4846BDE8F09F000033
:1011F000080000200D0000200C0000200146002007
:1012000003E0044A1154421C90B2B0F5007FF8DBB1
:1012100070470000240000201CB507A103C9CDE9D8
:1012200000010621684600F0B3FA4FF4007104484B
:1012300000F0BBFA1CBD00002200FF21007F00006F
:101240002400002010B5FFF71DFFC82000F098F91A
:10125000AE2000F009FBD52000F006FB802000F056
:1012600003FBA82000F000FB1F2000F0FDFAD320B4
:1012700000F0FAFA002000F0F7FA402000F0F4FA4B
:101280008D2000F0F1FA142000F0EEFA202000F09A
:10129000EBFA002000F0E8FAA12000F0E5FAC820FF
:1012A00000F0E2FADA2000F0DFFA022000F0DCFAC7
:1012B000812000F0D9FACF2000F0D6FAD92000F032
:1012C000D3FAF12000F0D0FADB2000F0CDFA402074
:1012D00000F0CAFAA42000F0C7FAA62000F0C4FA71
:1012E0002E2000F0C1FAAF2000F0BEFA10BD0000C1
:1012F000024A1070024A1170704700000C00002072
:101300000D0000207047000002460020044BD86A00
:1013100020F4806020F4784010430843D86270477E
:101320000010024001460020034AD06A20F00F005E
:101330000843D06270470000001002400448006873
:1013400040F0010002498039C1F880007047000078
:10135000801002400348C06A20F480700149C862CE
:10136000704700000010024001460020034AD06A86
:1013700020F4F8700843D06270470000001002406B
:10138000024949690143014A516170470010024016
:10139000F0B5002200BF0021002500243B4E7668F6
:1013A0003B4F06EA0701394E766806F4803501F0B6
:1013B00000661EB9022606EB914104E04FF4F87670
:1013C000C6EB9146711C65B9304E366C06F00106CD
:1013D0001EB1304E01FB06F30FE02F4E01FB06F36A
:1013E0000BE02A4E766806F400361EB1294E01FB4A
:1013F00006F302E0284E01FB06F3244E766806F061
:101400000C0222B1042A05D0082A08D105E0224E98
:10141000066007E0204E066004E0036002E01E4E16
:10142000066000BF00BF194E7668C6F303121B4E5C
:10143000B45C0668E6404660144E7668C6F3022245
:10144000164EB45C4668E6408660104E7668C6F379
:10145000C222124EB45C4668E640C6600B4EF66A85
:1014600006F00F020E4EB45C4668B6FBF4F6466119
:10147000064EF66AC6F3041202F00F06094F37F85B
:101480001640B3FBF4F60661F0BD00000010024008
:1014900000003C0800093D0000127A00B02100085D
:1014A000C0210008D02100080146002200234A1173
:1014B000012A02D0022A06D102E00A48036805E0A8
:1014C0000848036A02E00748436A00BF00BF01F012
:1014D0001F0201209040184008B1012070470020F1
:1014E000FCE70000001002400548406A40F08070B0
:1014F000034948620846406A20F08070486270479D
:101500000010024070472DE9F04106460C46174690
:101510001D46DDF8188006F0FE06FFF785FB304615
:10152000FFF7CCFBFFF74AFB20B1FFF7A7FB012039
:10153000BDE8F0810AE014F8010BFFF7BFFBFFF7ED
:101540003DFB18B1FFF79AFB0120F1E7381EA7F128
:101550000101CFB2EFD10AE015F8010BFFF7AEFBA6
:10156000FFF72CFB18B1FFF789FB0120E0E7B8F18A
:101570000000A8F101011FFA81F8EDD100BFD7E703
:1015800031B586B06846FFF703FF4FF47A710098D3
:10159000B0FBF1F52846FFF71DF8002408E000BF76
:1015A0004FF0E020006900F480300028F8D0641C7F
:1015B00006988442F3D34FF0E020006920F0010048
:1015C0004FF0E021086107B030BD70470FB5002033
:1015D0000290019000903D48006840F480303B4903
:1015E000086000BF39480068C0F34040019000988F
:1015F000401C00909DF8040018B90098B0F5005FF9
:10160000F0D132480068C0F3404001909DF80400DA
:1016100018B92F482F4908600FBD2F48006820F0E7
:1016200007002D4908600846006840F00300086084
:1016300026484068254948600846406840F4005004
:1016400048600846406840F4A0604860084640682A
:10165000224908401D4948600846006C20F00100FE
:101660000864084640680390039840F48030039073
:10167000039840F4003003901949039808430390FD
:10168000124903984860029808640846006840F0D0
:101690008070086000BF0D48006800F000700028EE
:1016A000F9D00A48406820F003000849486008461D
:1016B000406840F00200486000BF0448406800F005
:1016C0000C000828F9D100BFA6E700000010024076
:1016D00000127A000000002000200240FFFFC0F747
:1016E00000003C0810B52348006840F47000214910
:1016F00008602148006840F001001F490860084662
:1017000040681E4908401C494860084600681C495A
:101710000840194908600846006820F480200860E5
:101720000846406817490840134948604FF4605024
:10173000C86200200864144888600846C06940F008
:101740008050C8610846C06920F08050C8610F48C9
:10175000006840F080000D4908600846006820F0ED
:1017600010000860FFF732FF4FF000600149803938
:10177000086010BD88ED00E0001002400CC07FF84A
:10178000FFFFF6FEFFFFC0F700009F0400200240AD
:1017900038B504460D464FF6FF702B462246002111
:1017A00000907820FFF7FAF938BD38B504460D46A9
:1017B0004FF6FF702B462246402100907820FFF71D
:1017C000EDF938BD10B508210548FFF7BBF9102128
:1017D0000348FFF7B7F920210148FFF7B5F910BD1D
:1017E0000038024010B508210548FFF7ABF9102179
:1017F0000348FFF7A9F920210148FFF7A5F910BD1B
:101800000038024010B508210548FFF79BF9102168
:101810000348FFF799F920210148FFF793F910BD1C
:101820000038024010B508210548FFF78DF9102156
:101830000348FFF787F920210148FFF783F910BD1E
:101840000038024010B508210548FFF77BF9102148
:101850000348FFF777F920210148FFF773F910BD1E
:101860000038024000BFFEE701B582B04FF6FF70BE
:10187000012302AA002100907820FFF78FF90EBD06
:101880000FB4084B10B504A902AA039800F01CF885
:10189000044602A9002000F0B8F9204610BC5DF80B
:1018A00014FB00000B1C000802E008C8121F08C14E
:1018B000002AFAD170477047002001E001C1121FD1
:1018C000002AFBD1704700002DE9FF4F8BB08846FE
:1018D0000546002606E025280BD0DDE90D129047CD
:1018E0006D1C761C28780028F5D10FB03046BDE875
:1018F000F08F0024A146A2460122AE4900E0044335
:1019000015F8013F203B02FA03F00842F7D128788E
:101910002A2810D06FF02F022878A0F13001092971
:1019200015D809EB890102EB410144F0020400EBF8
:1019300001096D1CF0E758F8041B5FEA010903D5A3
:1019400044F40054C9F1000944F002046D1C2878E5
:101950002E2817D115F8010F44F004042A280ED0C0
:101960006FF02F022878A0F1300109290AD80AEB7C
:101970008A0102EB410100EB010A6D1CF2E758F805
:1019800004AB6D1C28786C280FD006DC4C2817D0CF
:1019900068280DD06A2814D104E0742810D07A2861
:1019A0000FD10DE044F400140AE044F4801401E087
:1019B00044F440146978814202D104F580146D1C0E
:1019C0006D1C2878692865D006DC00288DD0632836
:1019D00027D0642806D15DE06E2808D073282AD06D
:1019E000752877D0DDE90D129047761CE0E0C4F34E
:1019F0000250022809D003280DD0D8F8001004287E
:101A00000DD00E6008F10408D2E0D8F80010F217EB
:101A1000C1E90062F6E7D8F800100E80F2E70E7018
:101A2000F0E718F8041B8DF8001000208DF8010075
:101A3000EB46012003E058F804BB4FF0FF3061078C
:101A40004FF0000701D40AE07F1C57450DDA8742AA
:101A5000FADB1BF807100029F6D106E07F1C87424D
:101A6000FCDB1BF807100029F8D1DDE90D23A9EBF9
:101A700007008146214600F0B1F83044C61904E061
:101A8000DDE90D121BF8010B90477F1EF8D22146AD
:101A9000484688E058F8040BC4F302514FF00A0B93
:101AA000032900D100B2042900D140B2002802DA93
:101AB00040422D2102E0210505D52B218DF824106F
:101AC000012104E006E0E10710D02021F6E708AF8D
:101AD000089113E058F8040BC4F302514FF00A0BBD
:101AE000032900D180B2042900D1C0B20021EEE761
:101AF0005946FEF72BFB303107F8011D0028F7D1BE
:101B0000ADEB070000F1200B600702D524F4803410
:101B100001E04FF0010ADA4502DDAAEB0B0000E01C
:101B20000020824600EB0B0108980144A9EB01005C
:101B30000A90E00306D4DDE90D2321460A9800F05F
:101B40004DF806444FF0000908E009A911F8090012
:101B5000DDE90D12904709F10109761C08998945C4
:101B6000F3DBE0030CD5DDE90D2321460A9800F0F4
:101B700035F8064404E0DDE90D1230209047761C6C
:101B8000BAF10001AAF1010AF5DC05E0DDE90D1268
:101B900017F8010B9047761CBBF10001ABF1010B6C
:101BA000F4DC0A982146DDE90D2300F005F806442F
:101BB0006D1C97E6092801002DE9F0410446002537
:101BC0001E461746880404D405E039462020B04755
:101BD0006D1C641EF9D52846BDE8F0812DE9F04161
:101BE000044600251E469046C80301D5302700E074
:101BF0002027880404D505E041463846B0476D1CCF
:101C0000641EF9D52846BDE8F0810A68531C0B60B4
:101C100010707047F0B504461D4600294ADB2029A4
:101C200048DA002C02DA101902B20024A018802829
:101C300002DDC4F1800002B2002A3BDD0E46CF1760
:101C400001EB5777FF1004EBC717DFF86CC007EB09
:101C50000C0001F007070126BE40F3B225B1012DAB
:101C60000DD0022D23D117E003E006781E4300F8C3
:101C7000016B161EA2F101073AB2F6D118E0DE435D
:101C8000F3B203E006781E4000F8016B161EA2F1C5
:101C900001073AB2F6D10BE003E006785E4000F8A7
:101CA000016B161EA2F101073AB2F6D100E000BFA7
:101CB00000BF00BFF0BD0000240000202DE9F0436C
:101CC00006460C461546002E6FDB802E6DDA002C82
:101CD00002DA281905B200246019202802DDC4F1B7
:101CE000200005B2002D60DDE7B2E9B2BC464FEA44
:101CF000E77807EB58784FEAE80806EBC818DFF8F2
:101D0000189108EB090007F0070282B3C2F1080836
:101D100008F0FF02DFF8048118F802C0914207DAE8
:101D2000A2EB01094FF0FF0848FA09F808EA0C0C89
:101D300023B1012B09D0022B15D10DE090F80080C2
:101D400048EA0C0880F800800EE090F8008028EA4D
:101D50000C0880F8008007E090F8008088EA0C0802
:101D600080F8008000E000BF00BF803000BF9142DB
:101D70004FDBA1EB020C0CF0FF01082924DB022B46
:101D80000ED100BF90F800C08CF0FF0C80F800C0AE
:101D90008030A1F1080C0CF0FF010829F2DA13E001
:101DA000012B03D04FF0FF0802E033E04FF00008B2
:101DB000C44600BF80F800C08030A1F1080808F0D8
:101DC000FF010829F6DA00BF19B301F00702DFF8B6
:101DD000508018F802C023B1012B09D0022B15D175
:101DE0000DE090F8008048EA0C0880F800800EE0D2
:101DF00090F8008028EA0C0880F8008007E090F84E
:101E0000008088EA0C0880F8008000E000BF00BF76
:101E100000BF00BFBDE8F08324000020F0260008CA
:101E2000F826000806480078012802D0032803D1CC
:101E300000E000BF8020704700BF00BF2020FAE70D
:101E400010000020C0B04FF48070FEF7BBFBFFF71E
:101E5000F9F9FEF75FFBFEF7EDFFFEF79FFB7D2034
:101E6000FFF722FB78B9FF20FFF7C8F9FFF7D4F995
:101E70004FF4FA70FFF784FB0020FFF7BFF9FFF77C
:101E8000CBF9FFF731FB4FF47F610320FEF73CFFF6
:101E900000BF00BF002500260027A846002438E127
:101EA0009C480078052813D2DFE800F00306090CEF
:101EB0000F00FFF7B7FC0EE0FFF7C4FC0BE0FFF7E5
:101EC00081FC08E0FFF78EFC05E0FFF79BFC02E0D9
:101ED000FFF7A8FC00BF00BF00250026A9460CE0C4
:101EE0001020FEF7F7FA05440F20FEF7F3FA064438
:101EF0001420FFF745FB09F10109B9F1100FEFDBE1
:101F00002D09360900EE105AB8EE400ADFED820ABC
:101F100020EE200ABCEEC00A10EE100A87B200EED6
:101F2000106AB8EE400ADFED7D0A20EE200ABCEE12
:101F3000C00A10EE100A1FFA80F808FB07F04FF4F1
:101F40007A7190FBF1F4FFF7B9F802210846FFF728
:101F5000CFF94FF47A7097FBF0F100FB11700A2172
:101F600090FBF1F94FF47A7097FBF0FA4B4652462A
:101F70006BA16846FFF784FC6A4601210020FFF749
:101F8000CFF84FF47A7098FBF0F100FB11800A2132
:101F900090FBF1F94FF47A7098FBF0FA4B465246F9
:101FA00062A16846FFF76CFC6A4611210020FFF72A
:101FB000B7F842F20F70844213D84FF47A70B4FB32
:101FC000F0F100FB11400A21B0FBF1F94FF47A70F7
:101FD000B4FBF0FA4B46524657A16846FFF750FC57
:101FE00012E04FF47A70B4FBF0F100FB1140642171
:101FF000B0FBF1F94FF47A70B4FBF0FA4B4652465D
:1020000050A16846FFF73CFC04210220FFF770F95D
:102010006A4602214320FFF783F8FFF7FDF8FEF739
:1020200091FEFEF7A9FE49480078002871D00020F3
:10203000464908704649088068E0FEF70FFF4348AC
:10204000007828B1002041490870414908805FE0CC
:102050004048007858B100203E4908702D4800786B
:10206000042804DA2B480078401C2A4908703A48B2
:10207000007858B1002038490870264800780028B8
:1020800004DD24480078401E22490870FFF716F846
:1020900003210846FFF72CF91E480078052822D2B4
:1020A000DFE800F003090F151B002CA22DA16846E4
:1020B000FFF7E6FB1DE02CA22AA16846FFF7E0FB34
:1020C00017E02BA227A16846FFF7DAFB11E02AA24E
:1020D00024A16846FFF7D4FB0BE029A221A16846A2
:1020E000FFF7CEFB05E028A21EA16846FFF7C8FB5C
:1020F00000BF00BF6A4608210020FFF711F8052045
:10210000FFF73EFAFFF788F8FEF71CFE95E700E0C0
:1021100000BFC5E6050000200FF00041E54CCE3FB2
:1021200025752E25303275560000000025752E25A8
:10213000303275410000000025752E25303275576C
:102140000000000025752E2575570000180000209E
:10215000120000201B0000201D0000205553425F8C
:1021600030355600257300005553425F3039560014
:102170005553425F313256005553425F3135560058
:102180005553425F323056004552524F52000000C4
:1021900006480078012802D0032803D100E000BFE0
:1021A0002020704700BF00BF8020FAE71000002009
:1021B00000000000010203040102030406070809ED
:1021C00001020406080A0C102020202020202020D4
:1021D000010002000400060008000A000C001000C4
:1021E000200040008000000100010001000100010A
:1021F00000000000003E5B4F5B3E3E6B4F6B3E1CA1
:102200003E7C3E1C183C7E3C181C577D571C1C5EB7
:102210007F5E1C00183C1800FFE7C3E7FF0018248E
:102220001800FFE7DBE7FF30483A060E2629792938
:1022300026407F050507407F05253F5A3CE73C5A6D
:102240007F3E1C1C08081C1C3E7F14227F22145F4A
:102250005F005F5F06097F017F006689956A6060A5
:1022600060606094A2FFA29408047E040810207E9F
:10227000201008082A1C08081C2A08081E10101024
:10228000100C1E0C1E0C30383E3830060E3E0E066A
:10229000000000000000005F0000000700070014BD
:1022A0007F147F14242A7F2A12231308646236497C
:1022B0005620500008070300001C22410000412264
:1022C0001C002A1C7F1C2A08083E08080080703069
:1022D00000080808080800006060002010080402D8
:1022E0003E5149453E00427F4000724949494621DE
:1022F00041494D331814127F1027454545393C4A52
:102300004949314121110907364949493646494968
:10231000291E0000140000004034000000081422B0
:10232000411414141414004122140802015909061E
:102330003E415D594E7C1211127C7F494949363E1F
:10234000414141227F4141413E7F494949417F0905
:102350000909013E414151737F0808087F00417F10
:1023600041002040413F017F081422417F4040400E
:10237000407F021C027F7F0408107F3E4141413EA6
:102380007F090909063E4151215E7F091929462628
:102390004949493203017F01033F4040403F1F202C
:1023A00040201F3F4038403F631408146303047803
:1023B00004036159494D43007F4141410204081023
:1023C00020004141417F040201020440404040405E
:1023D000000307080020545478407F2844443838CC
:1023E00044444428384444287F385454541800083E
:1023F0007E090218A4A49C787F0804047800447D18
:1024000040002040403D007F1028440000417F40B4
:10241000007C047804787C08040478384444443808
:10242000FC1824241818242418FC7C0804040848E8
:102430005454542404043F44243C4040207C1C2039
:1024400040201C3C4030403C44281028444C909094
:10245000907C4464544C44000836410000007700EE
:1024600000004136080002010204023C2623263CFB
:102470001EA1A161123A4040207A38545455592186
:10248000555579412254547842215554784020546E
:102490005579400C1E5272123955555559395454BC
:1024A000545939555454580000457C410002457D2B
:1024B000420001457C407D1211127DF0282528F054
:1024C0007C545545002054547C547C0A097F493281
:1024D000494949323A4444443A324A4848303A41F8
:1024E00041217A3A42402078009DA0A07D3D4242A1
:1024F000423D3D4040403D3C24FF2424487E49432A
:10250000662B2FFC2F2BFF0929F620C0887E09039C
:1025100020545479410000447D413048484A3238C3
:102520004040227A007A0A0A727D0D19317D2629EF
:10253000292F28262929292630484D4020380808E7
:10254000080808080808382F10C8ACBA2F1028341B
:10255000FA00007B000008142A142222142A14080E
:102560005500550055AA55AA55AAFF55FF55FF001D
:102570000000FF00101010FF00141414FF001010D2
:10258000FF00FF1010F010F0141414FC001414F7E6
:1025900000FF0000FF00FF1414F404FC14141710D3
:1025A0001F10101F101F1414141F00101010F00023
:1025B0000000001F101010101F10101010F010005D
:1025C0000000FF101010101010101010FF1000006D
:1025D00000FF140000FF00FF00001F10170000FCA8
:1025E00004F414141710171414F404F40000FF007A
:1025F000F714141414141414F700F7141414171403
:1026000010101F101F141414F4141010F010F00008
:10261000001F101F0000001F14000000FC14000029
:10262000F010F01010FF10FF141414FF141010100D
:102630001F00000000F010FFFFFFFFFFF0F0F0F0C0
:10264000F0FFFFFF0000000000FFFF0F0F0F0F0F54
:102650003844443844FC4A4A4A347E0202060602A0
:102660007E027E0263554941633844443C04407E07
:10267000201E2006027E020299A5E7A5991C2A4980
:102680002A1C4C7201724C304A4D4D30304878480B
:1026900030BC625A463D3E494949007E0101017EF7
:1026A0002A2A2A2A2A44445F444440514A4440404A
:1026B000444A51400000FF0103E080FF0000080889
:1026C0006B6B083612362436060F090F0600001809
:1026D000180000001010003040FF0101001F010130
:1026E0001E00191D1712003C3C3C3C00000000007D
:1026F0000080C0E0F0F8FCFE000103070F1F3F7FE1
:10270000202700080000002024000000A81800086E
:10271000442700082400002004170000B81800080F
:102720000020A107000000000000000001010003DC
:102730000000000000000000000000000000000099
:042740000000000095
:0400000508000115D9
:00000001FF
